1BAMRVECA    004420185036204PROVE0000000062J00000000035689500000005000000115150000002018040701050032000000000000000000000374393000000000000000000000000000000000000000000000000000000000000000000000000000000000000000000000000000000000000000000000000000000000000000000000000000000000000000000000000000000000000000000000000000000000000000000000000000000000000000000000000000000000000000000000000000000000
2V0000000189394111000000000000               0000000000000000105001800000000000000000000010000000                0000000062000Josue Villazana                                             000000004596983                                                  0000                                                                                                              00000000000000000000000000000000000
2J0000000005896473000000000000               0000000000000000108000000000000000000000000005000000                0000000062000Farmacia                                                    000000004875321                                                  0000                                                                                                              00000000000000000000000000000000000
2J0000000005896473000000000000               0000000000000000108000000000000000000000001500000000                0000000062000Farmacia                                                    000000004377778                                                  0000                                                                                                              00000000000000000000000000000000000
2J0000000005896473000000000000               0000000000000000108000000000000000000000005000000000                0000000062000Farmacia                                                    000000004929249                                                  0000                                                                                                              00000000000000000000000000000000000
2V0000000189394111000000000000               0000000000000000105001800000000000000000005000000000                0000000062000Josue Villazana                                             000000004945270                                                  0000                                                                                                              00000000000000000000000000000000000
