1BAMRVECA    004920183887996PROVE0000000062J00000030994627700000004000000000000760001900010001050082691082118192000000000252287000000000000000000000000000000000000000000000000000000000000000000000000000000000000000000000000000000000000000000000000000000000000000000000000000000000000000000000000000000000000000000000000000000000000000000000000000000000000000000000000000000000000000000000000000000000
2J0000003126668031000000000000               0000000000000000105008264108211768400000000000020000                0000000062000METROPOLIS CARS, C.A.                                       000000004513294MITSUBISHI.002.0@METROPOLISCARS.COM               0000                                                                                                              00000000000000000000000000000000000
2J0000003148203891000000000000               0000000000000000105008261108212566000000000000035000                0000000062000MB CAMIONES DE GUAYANA C.A.                                 000000004966671MERCEDES.002,0@MBCAMIONES.COM.VE                  0000                                                                                                              00000000000000000000000000000000000
2J0000003126668031000000000000               0000000000000000105008264108211768400000000000010000                0000000062000METROPOLIS CARS, C.A.                                       000000004515169MITSUBISHI.002.0@METROPOLISCARS.COM               0000                                                                                                              00000000000000000000000000000000000
2J0000003148203891000000000000               0000000000000000105008261108212566000000000000011000                0000000062000MB CAMIONES DE GUAYANA C.A.                                 000000004734262MERCEDES.002,0@MBCAMIONES.COM.VE                  0000                                                                                                              00000000000000000000000000000000000
