1BAMRVECA    004420189999201PROVE0000000062J00000000025896700000003000000015150000002018040701050000000000000000000000000504062000000000000000000000000000000000000000000000000000000000000000000000000000000000000000000000000000000000000000000000000000000000000000000000000000000000000000000000000000000000000000000000000000000000000000000000000000000000000000000000000000000000000000000000000000000000
2V0000000189394111000000000000               0000000000000000105001800000000000000000000010000000                0000000062000Josue Villazana                                             000000004217823                                                  0000                                                                                                              00000000000000000000000000000000000
2J0000000005896473000000000000               0000000000000000108000000000000000000000000005000000                0000000062000Farmacia                                                    000000004567420                                                  0000                                                                                                              00000000000000000000000000000000000
2J0000000005896473000000000000               0000000000000000108000000000000000000000001500000000                0000000062000Farmacia                                                    000000004661857                                                  0000                                                                                                              00000000000000000000000000000000000
