1BAMRVECA    004920186893429PROVE0000000062J00000030994627700000004000000000000760002018090401050082691082118192000000000798682000000000000000000000000000000000000000000000000000000000000000000000000000000000000000000000000000000000000000000000000000000000000000000000000000000000000000000000000000000000000000000000000000000000000000000000000000000000000000000000000000000000000000000000000000000000
2J0000003126668031000000000000               0000000000000000105008264108211768400000000000020000                0000000062000METROPOLIS CARS, C.A.                                       000000004355668MITSUBISHI.002.0@METROPOLISCARS.COM               0000                                                                                                              00000000000000000000000000000000000
2J0000003148203891000000000000               0000000000000000105008261108212566000000000000035000                0000000062000MB CAMIONES DE GUAYANA C.A.                                 000000004794604MERCEDES.002,0@MBCAMIONES.COM.VE                  0000                                                                                                              00000000000000000000000000000000000
2J0000003126668031000000000000               0000000000000000105008264108211768400000000000010000                0000000062000METROPOLIS CARS, C.A.                                       000000004542174MITSUBISHI.002.0@METROPOLISCARS.COM               0000                                                                                                              00000000000000000000000000000000000
2J0000003148203891000000000000               0000000000000000105008261108212566000000000000011000                0000000062000MB CAMIONES DE GUAYANA C.A.                                 000000004146421MERCEDES.002,0@MBCAMIONES.COM.VE                  0000                                                                                                              00000000000000000000000000000000000
